


ARM Macro Assembler    Page 1 


    1 00000000         ;=======================================================
                       =====================
    2 00000000         ;===  Copyright (c) 2008 Qualcomm Technologies Incorpora
                       ted. All Rights Reserved.
    3 00000000         ;=======================================================
                       =====================
    4 00000000                 AREA             DAL_ASM, CODE, READONLY
    5 00000000         ;  CODE32  Same code compiles for nor flash tool image w
                       hich run on cortex-M3.
    6 00000000         ;          (RPM). Cortex-M3 is Thumb2 based instruction 
                       set. Setting it 
    7 00000000         ;          explicitly to ARM(CODE32) leads to compilatio
                       n when build for nor 
    8 00000000         ;          flash image. Let build enviorment choose the 
                       right cpu when compiling
    9 00000000         ;          the code(Cortex-M3 or Sparrorw A5)
   10 00000000         ;=======================================================
                       =====================
   11 00000000                 EXPORT           DALFW_LockedGetW
   12 00000000         ;==  pTarget= r0
   13 00000000         DALFW_LockedGetW
   14 00000000 E1901F9F        ldrex            r1,[r0]     ;tag and fetch valu
                                                            e
   15 00000004 E1A00001        mov              r0,r1
   16 00000008 E12FFF1E        bx               r14
   17 0000000C                 EXPORT           DALFW_LockedConditionalSetW
   18 0000000C         ;== pTarget=r0, value = r1
   19 0000000C         DALFW_LockedConditionalSetW
   20 0000000C E1802F91        strex            r2, r1, [r0]
   21 00000010 E1A00002        mov              r0, r2      ; return outcome 0 
                                                            = success
   22 00000014 E12FFF1E        bx               r14
   23 00000018                 END
Command Line: --cpu=7-A.security --apcs=/noswst/interwork --no_unaligned_access
 -o/local/mnt/workspace/CRMBuilds/BOOT.BF.3.3-00177-M8917LAAAANAZB-1_20160818_0
22933/b/boot_images/core/dal/src/build/prog_emmc_firehose_8953_lite/a53/JAADANA
Z/dal_asm_rvct.o -I/local/mnt/workspace/CRMBuilds/BOOT.BF.3.3-00177-M8917LAAAAN
AZB-1_20160818_022933/b/boot_images/core/dal/src/build -I/local/mnt/workspace/C
RMBuilds/BOOT.BF.3.3-00177-M8917LAAAANAZB-1_20160818_022933/b/boot_images/build
/cust -I. -I/local/mnt/workspace/CRMBuilds/BOOT.BF.3.3-00177-M8917LAAAANAZB-1_2
0160818_022933/b/boot_images/core/api/boot -I/local/mnt/workspace/CRMBuilds/BOO
T.BF.3.3-00177-M8917LAAAANAZB-1_20160818_022933/b/boot_images/core/api/boot/qfp
rom -I/local/mnt/workspace/CRMBuilds/BOOT.BF.3.3-00177-M8917LAAAANAZB-1_2016081
8_022933/b/boot_images/core/boot/secboot3/src -I/local/mnt/workspace/CRMBuilds/
BOOT.BF.3.3-00177-M8917LAAAANAZB-1_20160818_022933/b/boot_images/core/boot/ddr/
common -I/local/mnt/workspace/CRMBuilds/BOOT.BF.3.3-00177-M8917LAAAANAZB-1_2016
0818_022933/b/boot_images/core/boot/ddr/hw/msm8953 -I/local/mnt/workspace/CRMBu
ilds/BOOT.BF.3.3-00177-M8917LAAAANAZB-1_20160818_022933/b/boot_images/core/boot
/ddr/hw/phy -I/local/mnt/workspace/CRMBuilds/BOOT.BF.3.3-00177-M8917LAAAANAZB-1
_20160818_022933/b/boot_images/core/boot/ddr/hw/controller -I/local/mnt/workspa
ce/CRMBuilds/BOOT.BF.3.3-00177-M8917LAAAANAZB-1_20160818_022933/b/boot_images/c
ore/boot/secboot3/hw/msm8953 -I/local/mnt/workspace/CRMBuilds/BOOT.BF.3.3-00177
-M8917LAAAANAZB-1_20160818_022933/b/boot_images/core/api/debugtools -I/local/mn
t/workspace/CRMBuilds/BOOT.BF.3.3-00177-M8917LAAAANAZB-1_20160818_022933/b/boot
_images/core/api/dal -I/local/mnt/workspace/CRMBuilds/BOOT.BF.3.3-00177-M8917LA
AAANAZB-1_20160818_022933/b/boot_images/core/api/mproc -I/local/mnt/workspace/C
RMBuilds/BOOT.BF.3.3-00177-M8917LAAAANAZB-1_20160818_022933/b/boot_images/core/
api/services -I/local/mnt/workspace/CRMBuilds/BOOT.BF.3.3-00177-M8917LAAAANAZB-
1_20160818_022933/b/boot_images/core/api/systemdrivers -I/local/mnt/workspace/C



ARM Macro Assembler    Page 2 


RMBuilds/BOOT.BF.3.3-00177-M8917LAAAANAZB-1_20160818_022933/b/boot_images/core/
api/systemdrivers/pmic -I/local/mnt/workspace/CRMBuilds/BOOT.BF.3.3-00177-M8917
LAAAANAZB-1_20160818_022933/b/boot_images/core/api/systemdrivers/hwio/msm8953 -
I/local/mnt/workspace/CRMBuilds/BOOT.BF.3.3-00177-M8917LAAAANAZB-1_20160818_022
933/b/boot_images/core/api/kernel/libstd -I/local/mnt/workspace/CRMBuilds/BOOT.
BF.3.3-00177-M8917LAAAANAZB-1_20160818_022933/b/boot_images/core/debugtools/ver
sion/src -I/local/mnt/workspace/CRMBuilds/BOOT.BF.3.3-00177-M8917LAAAANAZB-1_20
160818_022933/b/boot_images/core/dal/src -I/local/mnt/workspace/CRMBuilds/BOOT.
BF.3.3-00177-M8917LAAAANAZB-1_20160818_022933/b/boot_images/core/dal/config -I/
local/mnt/workspace/CRMBuilds/BOOT.BF.3.3-00177-M8917LAAAANAZB-1_20160818_02293
3/b/boot_images/core/mproc/smem/inc -I/local/mnt/workspace/CRMBuilds/BOOT.BF.3.
3-00177-M8917LAAAANAZB-1_20160818_022933/b/boot_images/core/services/utils/src 
-I/local/mnt/workspace/CRMBuilds/BOOT.BF.3.3-00177-M8917LAAAANAZB-1_20160818_02
2933/b/boot_images/core/systemdrivers/tlmm/inc -I/local/mnt/workspace/CRMBuilds
/BOOT.BF.3.3-00177-M8917LAAAANAZB-1_20160818_022933/b/boot_images/core/systemdr
ivers/tlmm/src --list=/local/mnt/workspace/CRMBuilds/BOOT.BF.3.3-00177-M8917LAA
AANAZB-1_20160818_022933/b/boot_images/core/dal/src/build/prog_emmc_firehose_89
53_lite/a53/JAADANAZ/dal_asm_rvct.o.lst --sitelicense /local/mnt/workspace/CRMB
uilds/BOOT.BF.3.3-00177-M8917LAAAANAZB-1_20160818_022933/b/boot_images/core/dal
/src/build/prog_emmc_firehose_8953_lite/a53/JAADANAZ/dal_asm_rvct.o.i
